:020000040800F2
:10000000E809002045010008211E000855140008D9
:100010001D1E00085F0D00083732000800000000B8
:100020000000000000000000000000000D26000895
:10003000710F000800000000291F0008A52B000810
:100040005F0100085F0100085F0100085F01000810
:100050005F0100085F010008750F0008E50F000848
:100060000D100008351000085D1000085F01000841
:100070005F0100085F0100085F0100085F010008E0
:100080005F0100085F0100085F0100085F010008D0
:100090005F0100085F0100085F010008851000088B
:1000A0005F0100085F0100085F0100085F010008B0
:1000B0005F0100085F0100085F0100085F010008A0
:1000C0005F0100085F0100085F0100085F01000890
:1000D0005F0100085F0100088D2F0008093000084B
:1000E0009D0F00085F0100085F0100085F01000824
:1000F0005F0100085F0100085F0100085F01000860
:100100005F0100085F0100085F0100085F0100084F
:10011000092F00085F0100085F0100085F01000867
:100120005F0100085F0100085F0100085F0100082F
:10013000DFF80CD000F062FC004800476D6E00084C
:10014000E80900200648804706480047FEE7FEE72A
:10015000FEE7FEE7FEE7FEE7FEE7FEE7FEE7FEE777
:10016000B52B0008310100082DE9F05F054600209D
:1001700092469B4688460646814640241BE0284618
:1001800041464746224600F06CFB53465A46C01A89
:10019000914110D311461846224600F053FB2D1A08
:1001A00067EB01084F4622460120002100F04AFB80
:1001B00017EB00094E41201EA4F10104DFDC484684
:1001C00031462A464346BDE8F09F2DE9F041002420
:1001D000061B254671F1000605DA01240027D0EB45
:1001E000070067EB0101161E73F1000605DA002710
:1001F000D2EB0702012567EB0303FFF7B5FF864645
:100200000E4617469C46AC4204D00025D0EB050EA6
:1002100065EB010624B10020D2EB000760EB030C74
:10022000704631463A466346BDE8F081D2B201E0FD
:1002300000F8012B491EFBD270470022F6E710B5EB
:1002400013460A4604461946FFF7F0FF204610BD44
:1002500030B504460020034600E05B1C934203D205
:10026000E05CCD5C401BF8D030BDF0B480EA010208
:10027000D40F4200B2EB410F02D2024608461146AB
:100280004A0042D0C30DDDB2C1F3C752AD1A202DD2
:1002900035DAC1F3160141F4000204B15242C5F14E
:1002A000200602FA06F12A411044B3EBD05F23D0B6
:1002B000C4B1012DA0EBC35009DCF0BC4FF00042EB
:1002C00002EAC352DBB200F5000000F0F5BA4000CC
:1002D00000F1807000EBC350A0F1807040EAD17053
:1002E000490009E0490841EAC071A0EBC35000F59C
:1002F0000000400800EBC350F0BC00F0D4BA6142EB
:10030000012202EB4101001BF6E7F0BC704781F0CF
:100310000041AAE780F00040A7E780EA010210B59B
:1003200002F00043400022D04A001FD0010E01EB32
:100330001261C0F35600C2F3560240F4000042F4CA
:100340000002A0FB022000047F39140400D0401CEE
:1003500050EA124001D44000491EC2B20C0604EB20
:10036000D010401C4008802A02D003E0002010BDBD
:1003700020F00100002900DA0020184310BD30B43D
:1003800080EA010202F0004530F0004221F0004016
:1003900013D090B1C30DD40DC2F31601C0F31600F3
:1003A000E41A41F4000140F400027D34914201D38B
:1003B000641C00E04900002C02DA30BC00207047C9
:1003C0004FF400000023914201D3891A03434008EF
:1003D0004FEA4101F7D151B1914202D14FF00041B2
:1003E00005E002D24FF0010101E06FF0010103EBE3
:1003F000C450284430BC00F056BA2DE9FE4F804668
:1004000081EA0300C00F0C46009021F0004123F068
:100410000045B8EB0200A94105D24046214690466E
:100420001C460B46024623F00040104347D0270DE0
:10043000C7F30A00C3F30A510290401A0190402802
:100440006BDAC3F3130040F4801B0098924620B18E
:100450000023D2EB030A63EB0B0B01985946C0F162
:100460004002504600F0EEF906460D465046594609
:10047000019A00F006FA10EB08006141002487EAB7
:10048000115284EAE7731A4340D0009A62B3019A8A
:10049000012A4FEA075215DC001B61EB02014FF005
:1004A000004202EA0752CDE90042001C41F58011EA
:1004B00032462B4600F03DFA03B0BDE8F08F4046CF
:1004C0002146F9E7001B61EB0201001C41F5801396
:1004D00000185B412018A2F5001747EB030140EA22
:1004E000D570B6196D4111E06D084FEA360645EA40
:1004F000C0754FEA0752001B61EB0201001C41F579
:10050000801149084FEA30000019514132462B460C
:1005100003B0BDE8F04F00F0FDB9009801224000A3
:100520000023D0EB020263EBE073009821464FEA10
:10053000E074B8EB000061EB0401E9E783F00043ED
:100540005BE781F0004158E72DE9FE4F81EA0304A3
:1005500004F0004421F0004100944FF0000B23F020
:10056000004350EA01045ED052EA03045BD0C3F3B7
:100570000A54C1F30A552C44A4F2F3340194A0FBAD
:100580000254C1F3130141F48011C3F3130343F484
:10059000801301FB024400FB034E840A970A44EADD
:1005A000815447EA8357A4FB076802958D0A05FB2F
:1005B00007854FEA932C04FB0C542705029D4FEA54
:1005C000065847EA1637B5EB08056EEB070C870EA1
:1005D000920E47EA811742EA8312A7FB0201B6EBAB
:1005E0000B0164EB00042B0D43EA0C335E1844EB63
:1005F0001C50DA465146E7FB0201C5F313044FEAEB
:100600000B3343EA14534FEA0432019C43EA0603D6
:10061000A4F10C040294009CCDE900B400F089F927
:1006200003B0BDE8F08F00200146F9E72DE9F04D59
:1006300081EA030404F0004B21F0004514464FF01A
:10064000000A23F0004150EA050220D054EA0102DA
:100650001DD0C5F30A570246C5F31303C1F31300B7
:10066000C1F30A5640F4801543F48013A7EB060843
:10067000101BD64608F2FD3873EB050002D308F1D3
:10068000010801E092185B41B8F1000F03DA002085
:100690000146BDE8F08D00204FF4801106468446E7
:1006A0000EE0171B73EB050705D3121B63EB050365
:1006B00006434CEA010C49084FEA300092185B41AE
:1006C00050EA0107EDD152EA030012D082EA040099
:1006D00083EA0501084305D0101BAB4106D2012275
:1006E000002306E000224FF0004302E06FF0010219
:1006F00053101AEB06004CEB085110EB0A0041EBCB
:100700000B01BDE8F04D00F005B9C10F80EAE070C3
:100710000844CA079623002100F0CEB89623002291
:10072000114600F0C9B80EB5C10F80EAE070084468
:10073000CA07002140F233438DE80E000A460B46FB
:1007400000F0F7F803B000BD0EB540F2334102915E
:100750000021CDE900110A460B4600F0EAF803B08B
:1007600000BD00F0004220F00040C10DC0F31600B3
:1007700040F400007F2901DA00207047962903DC4D
:10078000C1F19601C84001E096398840002AF4D0B2
:100790004042704720F00040C10DC0F3160040F405
:1007A00000007F2901DA00207047962903DCC1F19F
:1007B0009601C840704796398840704700F0004263
:1007C00030F000400AD0C10D01F56071C0F3160091
:1007D00042EA0151C2084007114370470020014618
:1007E000704701F0004330B421F0004150EA0102AB
:1007F00006D00A0DA2F56072C1F31301002A02DCD3
:1008000030BC00207047440F44EAC104C100E01826
:1008100030BC00EBC25000F046B80000002801DBFD
:10082000C0F10040002901DBC1F100418142704765
:10083000002801DBC0F10040002901DBC1F10041CB
:1008400088427047202A04DB203A00FA02F1002097
:1008500070479140C2F1200320FA03F319439040FE
:100860007047202A04DB203A21FA02F00021704769
:1008700021FA02F3D040C2F1200291400843194608
:100880007047202A06DBCB17203A41FA02F043EAF0
:10089000E07306E041FA02F3D040C2F12002914039
:1008A0000843194670470029A8BF7047401C4900FB
:1008B00008BF20F00100704710B4B0FA80FC00FAC5
:1008C0000CF050EA010404BF10BC704749B1CCF1F0
:1008D000200421FA04F411FA0CF118BF012121437C
:1008E0000843A3EB0C01CB1D4FEA00614FEA102037
:1008F00042BF002010BC704700EBC35010440029D9
:10090000A4BF10BC7047401C490008BF20F0010084
:1009100010BC704710B5141E73F1000408DA401CB7
:1009200041F1000192185B411A4301D120F001000E
:1009300010BD2DE9F04D92469B4611B1B1FA81F2FE
:1009400002E0B0FA80F220329046FFF77BFF0446C7
:100950000F4640EA0A0041EA0B0153465A46084353
:1009600013D0114653EA010019D0C8F14002504695
:10097000FFF777FF05460E46504659464246FFF7B9
:1009800061FF084305D0012004E020463946BDE858
:10099000F08D0020054346EAE0762C4337430A9861
:1009A0006305E40AA0EB08000022FD0A44EA47546C
:1009B0000A3002D500200146E9E701051019694116
:1009C000DDE9084500196941BDE8F04DA2E770B5C1
:1009D00021F0004303430CD0C1F30A550024D5EBAA
:1009E000040564EB0403D617AD1AB34102DB002003
:1009F000014670BD201841EB025170BD064C074DF9
:100A000006E0E06840F0010394E8070098471034DE
:100A1000AC42F6D3FFF790FBE09B0008009C000877
:100A20002DE9F04D00231A461B1A8A4103DB0020F2
:100A30000146BDE8F08DC1F30A52C1F3130141F440
:100A400080154FF0000BD10702D100186D41521EE6
:100A50000027044640F2FF11384601EB620A3E4689
:100A60008046024600204FF48011FFF7FAFEC219BB
:100A70007141BB1846EB0100B4EB030C75EB000CA5
:100A800004D3E41A65EB000517460E46241908F155
:100A900001006D4180463428E3DDF91946EB06007C
:100AA000091BA84103D24FF0FF32134601E0002298
:100AB00013461BEB070046EB0A51BDE8F04DFFF76C
:100AC00029BF30B58C1810F8012B12F00F0301D19B
:100AD00010F8013B120906D110F8012B03E010F8C1
:100AE000015B01F8015B5B1EF9D101E001F8013BFC
:100AF000521EFBD1A142E6D3002030BD21B1826855
:100B000042F00102826003E0826822F0010282600A
:100B10007047000000B591B0314800F03DF9314810
:100B2000069031480790002008900120099000208D
:100B30000A900B904FF480700C9080000D90202054
:100B40000E9000020F900020109006A9244800F09B
:100B5000EFF90121224800F013F900200190012053
:100B60008DF808008DF809004FF4602003900020F4
:100B7000049001208DF8140001A91A484C3800F0A7
:100B800055F8072301220A2116484C3800F076F860
:100B9000012114484C3800F029F8012111484C3843
:100BA000FFF7ACFF0F484C3800F0C4F800BF0D4809
:100BB0004C3800F030F80028F9D10A484C3800F0E1
:100BC000C9F800BF07484C3800F01BF80028F9D1DD
:100BD000012104484C3800F0B2F811B000BD00000B
:100BE000080002404C240140EC01002021B1826841
:100BF00042F48072826003E0826822F48072826034
:100C00007047014600208A6802F004020AB1012000
:100C100000E000207047014600208A6802F00802C8
:100C20000AB1012000E000207047000030B5024604
:100C30000020002350680F4C20400D790C6844EAD6
:100C400005242043506090680B4C2040D1E90254A9
:100C50002C434D7944EA450420439060D06A20F447
:100C600070000C7C641EE4B2234340EA0350D0625F
:100C700030BD0000FFFEF0FFFDF7F1FFF0B50446C8
:100C80000D4600200021092D11DDE068A5F10A06BE
:100C900006EB4607072606FA07F18843A5F10A0680
:100CA00006EB460603FA06F10843E0600CE0206913
:100CB00005EB4507072606FA07F1884305EB4506CD
:100CC00003FA06F108432061072A0FDA606B561E0B
:100CD00006EB86071F2606FA07F18843561E06EB29
:100CE000860605FA06F10843606322E00D2A0FDA52
:100CF000206BD61F06EB86071F2606FA07F18843EE
:100D0000D61F06EB860605FA06F10843206310E0BD
:100D1000E06AA2F10D0606EB86071F2606FA07F128
:100D20008843A2F10D0606EB860605FA06F1084394
:100D3000E062F0BD816841F008018160704721B137
:100D4000826842F4A002826003E0826822F4A0027A
:100D500082607047816841F004018160704700BF84
:100D6000FEE7000000F0805111B10349086001E086
:100D7000024948607047000004040240000002403D
:100D800021B1026842F00102026004E002684FF6FD
:100D9000FE731A400260704701684FF6FE72114000
:100DA00001600021016041608160C1604B4988425F
:100DB00008D14A490839496841F00F01474A083AC1
:100DC00051608AE045491431884208D143490839C5
:100DD000496841F0F001414A083A51607DE03F49DD
:100DE0002831884208D13D490839496841F4706189
:100DF0003A4A083A516070E038493C31884208D19B
:100E000036490839496841F47041344A083A51601A
:100E100063E032495031884208D130490839496885
:100E200041F470212D4A083A516056E02B49643153
:100E3000884208D129490839496841F47001274A94
:100E4000083A516049E025497831884208D1234960
:100E50000839496841F07061204A083A51603CE025
:100E60001F49884206D1011F096841F00F01021F86
:100E7000116032E01A491431884208D11849091F1B
:100E8000096841F0F001164A121F116025E014496B
:100E90002831884208D11249091F096841F470615C
:100EA0000F4A121F116018E00D493C31884208D1E9
:100EB0000B49091F096841F47041094A121F11606A
:100EC0000BE007495031884207D10549091F0968DD
:100ED00041F47021024A121F11607047080002405D
:100EE0000804024010B5044600212046FFF748FFE1
:100EF000C821204600F03AF801212046FFF740FFC4
:100F000010BD000001460020002201F0805313B103
:100F1000054B1A6801E0054B1A6802EA01030BB1A0
:100F2000012000E000207047000402400000024061
:100F300010B50022026847F6F0739A430C6A8B687A
:100F400023430C6923434C6923438C692343CC69B5
:100F500023434C6A23438C6A23431A430260CB68C1
:100F600043600B6883604B68C36010BD416070478D
:100F70007047000010B50748006800F0010040B15C
:100F8000012000F09FF80448006810B10249086889
:100F9000804710BD140401402C05002010B50A2420
:100FA00019E00E2C02D10A2002F0F6FA0B48006874
:100FB0000121A140084060B1012101FA04F000F0D4
:100FC00081F8074850F8240018B1054951F8240069
:100FD0008047601CC4B20F2CE3DD10BD1404014037
:100FE0002C05002010B50748006800F0020040B151
:100FF000022000F067F80448406810B102494868D0
:10100000804710BD140401402C05002010B507488E
:10101000006800F0040040B1042000F053F80448D8
:10102000806810B102498868804710BD14040140EF
:101030002C05002010B50748006800F0080040B1FA
:10104000082000F03FF80448C06810B10249C868A1
:10105000804710BD140401402C05002010B507483E
:10106000006800F0100040B1102000F02BF8044898
:10107000006910B102490869804710BD140401409D
:101080002C05002010B5052414E00C48006801214F
:10109000A140084060B1012101FA04F000F012F80B
:1010A000074850F8240018B1054951F8240080473A
:1010B000601CC4B2092CE8DD10BD0000140401401E
:1010C0002C0500200149086070470000140401400D
:1010D000002123498279002A3AD00A46126803681F
:1010E0009A430B461A600A1D126803689A430B1D47
:1010F0001A60027911440A6803681A430A60184AA0
:101100000832126803689A43154B08331A601A1D97
:10111000126803689A43124B0C331A604279102A02
:101120000ED11A1F126803681A430D4B08331A6058
:101130001A1D126803681A43094B0C331A600DE03C
:101140000749427911440A6803681A430A6005E0B6
:10115000027911440A6803689A430A6070470000E4
:101160000004014030B500228B071C0F0F2303FA47
:1011700004F20B4B8C1053F824309343084C8D1021
:1011800044F8253023468C1053F824308C07240F64
:1011900000FA04F42343024C8D1044F8253030BD8E
:1011A000080001402DE9F0410246002500260020FC
:1011B00000230024002791F803C00CF00F0591F8DC
:1011C00003C00CF0100CBCF1000F03D091F802C06A
:1011D0004CEA050591F800C0BCF1000F31D014684D
:1011E00000202BE04FF0010C0CFA00F3B1F800C026
:1011F0000CEA03069E4220D183004FF00F0C0CFA3C
:1012000003F7BC4305FA03FC4CEA040491F803C05D
:10121000BCF1280F06D14FF0010C0CFA00FCC2F80B
:1012200014C00AE091F803C0BCF1480F05D14FF09B
:10123000010C0CFA00FCC2F810C0401C0828D1D3E5
:101240001460B1F800C0BCF1FF0F34DD5468002019
:101250002EE000F1080C4FF0010808FA0CF3B1F889
:1012600000C00CEA03069E4221D183004FF00F0C10
:101270000CFA03F7BC4305FA03FC4CEA040491F8AA
:1012800003C0BCF1280F05D100F1080C08FA0CF8D6
:10129000C2F8148091F803C0BCF1480F07D100F1E7
:1012A000080C4FF0010808FA0CF8C2F81080401C36
:1012B0000828CED35460BDE8F0810000F0B50A469E
:1012C000002300240021002500F00046B6F1004F65
:1012D00002D11D4EF16901E01B4E7168C0F3034558
:1012E00083B200F44016B6F5401F08D121F07061BA
:1012F000154E766826F07066134F7E6012E000F49B
:101300008016B6F5801F06D1032606FA05F4A14320
:1013100041F0706106E0460D360103FA06F6B1436E
:1013200041F0706122B1460D360103FA06F63143F1
:1013300000F00046B6F1004F02D1034EF16101E02A
:10134000014E7160F0BD000000000140014609B986
:10135000002070471248814201D10020F9E711486E
:10136000814201D10120F4E70F48814201D10220DE
:10137000EFE70E48814201D10320EAE70C488142A1
:1013800001D10420E5E70B48814201D10520E0E7C7
:101390000948814201D10620DBE70020D9E700009F
:1013A00000080140000C0140001001400014014001
:1013B00000180140001C01400020014002460020AE
:1013C00093680B400BB1012000E0002070474161A1
:1013D000704701617047000010B50E4B1A681B1D65
:1013E00018681B1D19680C4C2270130A6370130CCB
:1013F000A370130EE3702071030A6371030CA371D1
:10140000030EE37121720B0A63720B0CA3720B0EB5
:10141000E37210BDE8F7FF1FBC05002030B502469F
:101420000B46002010E012F8014B6040002109E05B
:1014300000F001041CB18C2484EA600000E040103C
:101440004C1CE1B20829F3DB1C1EA3F10105ABB271
:10145000E9D130BD00BFFEE708B50121102000F042
:1014600091FDC020ADF8000010208DF8030003208E
:101470008DF8020069461248FFF794FE0121102002
:1014800000F080FD4FF44070ADF8000010208DF8A2
:10149000030003208DF8020069460948FFF782FE29
:1014A0008020074948614020486180004861400031
:1014B000486100F007F805F0FFFB012008BD0000BF
:1014C0000010014000B589B00121C80200F05AFDAA
:1014D0000121052000F056FD18208DF8230003207F
:1014E0008DF822008002ADF8200008A92748FFF7F8
:1014F00059FE42F20F70ADF818000020ADF814004C
:10150000ADF81A00ADF8160005A9214801F0AAFCB3
:101510006020ADF804000120ADF8060042F2107022
:10152000ADF80A000220ADF80C0001A9184801F03E
:10153000F1FB0821164801F03DFC01A9144801F017
:1015400043FC0821124801F07DFC0121104801F004
:1015500079FB01210E4801F05DFB01210C4801F0EF
:1015600065FB0021084606F007FF0021084606F04B
:1015700055FF084800210160416007480160416053
:1015800006480160416009B000BD0000000801404C
:10159000002C0140BC000020C4000020CC00002032
:1015A0002DE9F04105460C46894801682046FEF7C2
:1015B000AEFE0746874801683846FEF7AEFE06468F
:1015C000854801683046FEF750FE8349086083482D
:1015D000416883480068FEF79AFE06467F488168A6
:1015E0003046FEF794FE7F4908607C48C06880F072
:1015F000004048607948C06880F0004088607A48C0
:101600000068C860086873490968FEF786FE0646E8
:10161000724801683046FEF728FE7049086071493B
:1016200048686C490968FEF778FE06466B484168D1
:101630003046FEF71AFE694948606A49886865497C
:101640000968FEF76AFE0646644881683046FEF780
:101650000CFE624988606349C8685E490968FEF704
:101660005CFE06465D48C1683046FEF7FEFD5B49FC
:10167000C860594801682846FEF749FE5B49086082
:101680005B480078FFF74AF8064654480168304640
:10169000FEF743FE5749086055480078FFF73EF8CB
:1016A00006464E4881683046FEF737FE52490860CC
:1016B0004F480078FFF732F807464E480168384631
:1016C000FEF72BFE06464D4801683046FEF7CDFD7D
:1016D0004B4908600846016846480068FEF74FFE1F
:1016E000484908604648016843480068FEF747FEDD
:1016F000454908603F480068444908603C48007814
:10170000FFF70CF80646354841683046FEF705FEFF
:101710003F4908603D4801683A480068FEF7FDFD12
:1017200006462E4801683046FEF7F4FD2B49086056
:101730003748016833480068FEF7EFFD0646274842
:1017400041683046FEF7E6FD244948602F480168AD
:101750002D480068FEF7E1FD0646204881683046C6
:10176000FEF7D8FD1D4988602948016826480068B1
:10177000FEF7D3FD06461948C1683046FEF7CAFD9C
:101780001649C860194801681E480068FEF7C5FD83
:101790000646114801683046FEF767FD0E490860AD
:1017A0001248016818480068FEF7B7FD0646084869
:1017B00001683046FEF759FD054908600846016892
:1017C0002046FEF7A4FD13490860BDE8F081000043
:1017D000B8010020B00100209C010020DC010020A5
:1017E000A4010020D8050020A8010020BC01002091
:1017F000B4010020C0010020C4010020AC01002081
:10180000C8010020CC010020D0010020D40100201C
:10181000D8010020A00100202DE9FC4104460D461E
:1018200016466B4606223B21682000F021FA074647
:10183000BFB99DF801009DF8001040EA012000B2F8
:1018400020809DF803009DF8021040EA012000B2BC
:1018500028809DF805009DF8041040EA012000B2A0
:1018600030803846BDE8FC812DE9FC4104460D4638
:1018700016466B4606224321682000F0F9F9074618
:10188000BFB99DF801009DF8001040EA012000B2A8
:1018900020809DF803009DF8021040EA012000B26C
:1018A00028809DF805009DF8041040EA012000B250
:1018B00030803846BDE8FC812DE9F84F6B460222A6
:1018C0004121682000F0D4F99DF801009DF8001036
:1018D00040EA01200FFA80FA5046FEF724FF8046C6
:1018E00000220B4BFEF7A2FE06460A4A0A4BFEF701
:1018F00084FD0446FEF775FF834608495846FEF707
:101900000CFD0446FEF72DFF00B2BDE8F88F000085
:1019100000407540A4703D0AD74342400000C842D1
:1019200010B500200E4908600E48006820F0704095
:101930000C4908600846006840F0405008600020EC
:101940000949C1F89C0100F011F801200449086020
:1019500000F00CF800200449C1F8980110BD000007
:1019600098812142000C01400080214210B50220E4
:1019700001F036FE10BD000008B50121082000F07E
:1019800001FB0121480500F0EDFAC020ADF8000090
:1019900010208DF8030003208DF8020069460448EA
:1019A000FFF700FCC0210248FFF713FD08BD00004F
:1019B000000C014010B500200E4908600E48006878
:1019C00020F070400C4908600846006840F0405024
:1019D000086001200949C1F89C01FFF7C7FF0120F9
:1019E00004490860FFF7C2FF00200449C1F89801CC
:1019F00010BD000098812142000C0140008021426E
:101A000070B5054600241648006820F0704014495F
:101A100008600846006840F000400860002614E0B6
:101A2000002010490860FFF7A1FF01200E49C1F80E
:101A300098016006040E0B487C38006808B1601CF1
:101A4000C4B2FFF793FF701CC6B2082EE8DB15B9CD
:101A5000FFF7B0FF01E0FFF763FF204670BD000015
:101A6000000C0140988121420080214270B504465B
:101A70001248006820F0704010490860084600686D
:101A800040F04050086000200D490860002512E039
:101A9000E0090B49091D08606006040E0120094990
:101AA000C1F89801FFF762FF002005490860FFF7C1
:101AB0005DFF681CC5B2082DEADB70BD000C01405B
:101AC000988121420080214210B50E48006820F024
:101AD00070400C4908600846006840F040500860BB
:101AE0000120094908600949C1F89801FFF73EFF44
:101AF000002005490860FFF739FF00200349C1F8BD
:101B0000980110BD000C01409C81214200802142BF
:101B100010B50E48006820F070400C490860084677
:101B2000006840F0405008600020094908600949F9
:101B3000C1F89C01FFF71AFF01200549086005491B
:101B4000C1F89C01FFF712FF10BD0000000C01401E
:101B5000988121420080214210B500241448006879
:101B600020F07040124908600846006840F00040CC
:101B7000086001200F490860FFF7F8FE01200E49B8
:101B8000C1F89801FFF7F2FE07E0601CC4B2FA2C1E
:101B900003DDFFF7BDFF012010BD06488038006857
:101BA0000028F2D10349091F086000BFF4E70000D4
:101BB000000C01409C8121420080214210B5FFF7BA
:101BC000DBFE80216B2000F0D7F8642001F0F0FCF0
:101BD00000216B2000F0D0F8032000F08BF80020EB
:101BE00000F080F8642000F0AAF80021382000F00E
:101BF000C3F800216A2000F0BFF80021232000F084
:101C0000BBF88021372000F0B7F8752000F013F8FA
:101C10000446682C0BD101216B2000F0ADF80021A7
:101C20006C2000F0A9F8642000F089F801E00120A0
:101C300010BD0020FCE770B50446FFF745FFD0203B
:101C4000FFF714FFFFF788FF2046FFF70FFFFFF7AE
:101C500083FFFFF739FFD120FFF708FFFFF77CFF75
:101C60000020FFF7CDFE0546FFF752FF284670BD66
:101C70002DE9F04106460F4614461D46FFF724FFA6
:101C8000002141EA4601C8B2FFF7F0FEFFF764FF0A
:101C900020B1FFF73DFF0120BDE8F0813846FFF796
:101CA000E5FEFFF759FFFFF70FFF012101EB4601AA
:101CB000C8B2FFF7DBFEFFF74FFF0DE0012C04D1A8
:101CC0000020FFF79DFE287003E00120FFF798FE3B
:101CD0002870601EC4B26D1C002CEFD1FFF718FFF6
:101CE0000020D9E710B50446E006010E1C2000F0E4
:101CF00043F810BD10B50446E006010E1B2000F0AD
:101D00003BF810BD70B504460025BC2C01DB012555
:101D100010E0622C01DB02250CE02A2C01DB0325FC
:101D200008E0142C01DB042504E00A2C01DB052566
:101D300000E0062529461A2000F01EF870BD70B597
:101D40000446B4F57A7F01DD4FF47A74042C00DA8E
:101D500004244FF47A7090FBF4F0401EC5B229467B
:101D6000192000F009F80546264604EBD671C1F3A8
:101D70004F00FFF7C7FF70BD70B505460C46FFF773
:101D8000A3FED020FFF772FEFFF7E6FE18B1FFF7C3
:101D9000BFFE012070BD2846FFF768FEFFF7DCFE9E
:101DA0002046FFF763FEFFF7D7FE18B1FFF7B0FE3E
:101DB0000120EFE7FFF7ACFE0020EBE72DE9F04153
:101DC00005460E4617469846FFF77EFE002141EA7B
:101DD0004501C8B2FFF74AFEFFF7BEFE20B1FFF78C
:101DE00097FE0120BDE8F0813046FFF73FFEFFF788
:101DF000B3FE00240CE018F80400FFF737FEFFF7ED
:101E0000ABFE18B1FFF784FE0120EBE7601CC4B203
:101E1000BC42F0DBFFF77CFE0020E3E700BFFEE7FB
:101E2000704708B54FF4A06000F074F806208DF8F4
:101E3000000002208DF8010000208DF80200012032
:101E40008DF80300684600F02DF817208DF800008B
:101E500002208DF8010005208DF8020001208DF888
:101E60000300684600F01EF828208DF800000220CC
:101E70008DF8010006208DF8020001208DF8030086
:101E8000684600F00FF808BD08B54FF4A06000F0F8
:101E900041F801208DF8030006F000FA684600F0D2
:101EA00001F808BD70B5002100230F22C47804B3E7
:101EB000154C246804F4E064C4F5E064210AC1F11F
:101EC0000403CA40447804FA03F18478144021439F
:101ED00009010E4C0678A155047804F01F05012471
:101EE000AC4005786D11AD0005F1E025C5F8004165
:101EF00009E0047804F01F050124AC40044D067885
:101F0000761145F8264070BD0CED00E000E400E0DD
:101F100080E100E002490143024A1160704700007D
:101F20000000FA050CED00E07047000001460020BB
:101F3000034A506820F44040084350607047000056
:101F40000010024029B1064A52690243044B5A610B
:101F500004E0034A52698243014B5A617047000012
:101F60000010024029B1064AD2690243044BDA61EB
:101F700004E0034AD2698243014BDA6170470000F2
:101F80000010024029B1064A92690243044B9A614B
:101F900004E0034A92698243014B9A617047000052
:101FA000001002400348406A40F0807001494862D6
:101FB000704700000010024010B54FF40040FFF7DA
:101FC000B5FF01210846FFF7BDFF012140F21D20AA
:101FD000FFF7D8FF01210248FFF7C4FF10BD000042
:101FE0000200060030B500210022002400232D4D00
:101FF0006D6805F00C0121B1042905D0082923D111
:1020000005E0294D056022E0274D05601FE0254DC4
:102010006D6805F47012234D6D6805F48034022557
:1020200005EB92421CB9214D554305600BE01D4D57
:102030006D6805F400351DB11C4D5543056002E087
:10204000194D5543056002E0174D056000BF00BF04
:10205000144D6D6805F0F0010909154D6B5C0568BC
:10206000DD4045600F4D6D6805F4E061090A104DD3
:102070006B5C4568DD4085600A4D6D6805F4605114
:10208000C90A0B4D6B5C4568DD40C560054D6D6848
:1020900005F44041890B074D6B5CC568B5FBF3F552
:1020A000056130BD0010024000127A0000093D00B9
:1020B000F0010020000200202DE9F84F0746884675
:1020C00091469A464FF0000B00200090FE48008891
:1020D00000287DD0002404E0FC48005DFC49085540
:1020E000641C022CF8DBFA480078FA490978884227
:1020F0006ED1F7484078F74949788842F8D10024F2
:1021000005E0F249A01C085CF3490855641C022C48
:10211000F7DBEE480579691DFFF780F90646EE48C2
:1021200000884AF65522811A90426FD00CDCA0F547
:10213000AA40A0F1550000284FD0052867D05028AC
:102140007ED055287DD106E005297BD050297AD054
:102150005529F7D108E1A81DDC49085CDF49097859
:10216000884228D1E81DD949085CDC494978884271
:1021700021D1681DD549085CD94908700846007806
:10218000B04218D100240BE0D049601D085CD5494D
:102190000855CE4904F10900085CD3490855641C70
:1021A000042CF1DBCF4800680090CF48D0F800B095
:1021B0000020CE4908800020C3490880CC4908701F
:1021C0005846009906F07EF953464A46414600E0DB
:1021D000E8E1384600F01CFAE3E1A81DBB49085CC1
:1021E000BE49097888422AD1E81DB849085CBB4934
:1021F0004978884223D1681DB449085CB849087001
:1022000008460078B0421AD100240DE0ECE06BE003
:10221000AE49601D085CB3490855AC4904F109009A
:10222000085CB1490855641C042CF1DBAD4800681A
:102230000090AD48D0F800B00120AC49088003E020
:1022400012E0A8E167E10FE100209F490880A8495A
:1022500008705846009906F035F953464A464146FB
:10226000384600F0D5F99CE1A81D9849085C9B49C7
:102270000978884228D1E81D9449085C9749497833
:10228000884221D1681D9149085C9549087008462B
:102290000078B04218D100240BE08C49601D085C26
:1022A00090490855894904F10900085C8E49085590
:1022B000641C042CF1DB8B48006800908A48D0F83D
:1022C00000B002208949088000207F4908808849A1
:1022D00008705846009906F0F5F853464A464146BC
:1022E000384600F095F95CE1A81D7849085C7B4907
:1022F0000978884228D1E81D7449085C77494978F3
:10230000884221D1681D7149085C754908700846EA
:102310000078B04218D100240BE06C49601D085CC5
:1023200070490855694904F10900085C6E4908556F
:10233000641C042CF1DB6B48006800906A48D0F8FC
:1023400000B003206949088000205F49088068497F
:1023500008705846009906F0B5F853464A4641467B
:10236000384600F055F91CE1A81D5849085C5B4946
:102370000978884228D1E81D5449085C57494978B2
:10238000884221D1681D5149085C554908700846AA
:102390000078B04218D100240BE04C49601D085C65
:1023A00050490855494904F10900085C4E4908554F
:1023B000641C042CF1DB4B48006800904A48D0F8BC
:1023C00000B004204949088000203F49088048495E
:1023D00008705846009906F075F853464A4641463B
:1023E000384600F015F9DCE0A81D3849085C3B4987
:1023F0000978884228D1E81D3449085C3749497872
:10240000884221D1681D3149085C35490870084669
:102410000078B04218D100240BE02C49601D085C04
:1024200030490855294904F10900085C2E4908552E
:10243000641C042CF1DB2B48006800902A48D0F87B
:1024400000B005202949088000201F49088028493C
:1024500008705846009906F035F853464A464146FA
:10246000384600F0D5F89CE0A81D1849085C1B49C7
:10247000097888423FD1E81D1449085C174949781A
:10248000884238D1681D1149085C15490870084612
:102490000078B0422FD100240BE00C49601D085C8D
:1024A00010490855094904F10900085C0E4908550E
:1024B000641C042CF1DB0B48006800900A48D0F83B
:1024C00000B00620094915E00C0100209C03002003
:1024D0002A010020528E000828010020508E00089A
:1024E0001D010020240100202001002060010020A7
:1024F0000E010020088000202B4908802B4908701D
:102500005846009905F0DEFF53464A464146384694
:1025100000F07EF845E0A81D2549085C25490978AA
:10252000884228D1E81D2249085C2249497888421E
:1025300021D1681D1E49085C1F49087008460078B3
:10254000B04218D100240BE01949601D085C1B49FA
:102550000855174904F10900085C19490855641C1D
:10256000042CF1DB1548006800901548D0F800B045
:1025700007201449088000200B4908800B49087087
:102580005846009905F09EFF53464A464146384654
:1025900000F03EF805E00020034908800349087078
:1025A00000BF00BFBDE8F88F0C0100200E01002025
:1025B0009C030020508E00081D01002024010020F3
:1025C000200100206001002070B504460D46012D59
:1025D0000CD104EB84020C4B03EB8202918804EBD8
:1025E000840253F82200FEF7F4FE0BE004EB8402B1
:1025F000054B03EB8202918804EB840253F822001E
:10260000FEF7E5FE70BD0000008E00087047000078
:102610002DE9F04781460E4617469846002504F0FE
:1026200057F8FE49086004F069F8FD490860002089
:1026300006F070F88246FEF771F8FA49086001204A
:1026400006F068F88246FEF769F8F749086002204C
:1026500006F060F88246FEF761F8F449086003204E
:1026600006F058F88246FEF759F8F149086003F081
:10267000C7FDF049086003F0EDFDEF4908604846EA
:10268000FEF743F88246ED49FDF779FEEC49086014
:10269000EC480660EC480760EC48C0F80080002475
:1026A00004E0EB48005DEB490855641C022CF8DBA4
:1026B000E948B0F9000008282FD2DFE800F0042F25
:1026C0006EADFDFCFBFA45F65A20E4490880002473
:1026D00005E0E248015DDF4AA01C1154641C022C95
:1026E000F7DB1025DB480571002414E0CB48015DC1
:1026F000D84A601D1154CA48015D04F10900115403
:10270000CC48015D04F10D001154CB48015D04F18A
:1027100011001154641C042CE8DB6DE145F65520D2
:10272000CE490880002405E0CC48015DC94AA01CC0
:102730001154641C022CF7DB2025C64805710024C7
:1027400028E0B648015DC34A601D1154B448015DDC
:1027500004F109001154B748015D04F10D00115452
:10276000B548015D04F111001154AE48015D04F15A
:1027700015001154AC48015D04F119001154AB4827
:10278000015D04F11D001154A948015D04F121000F
:102790001154641C042CD4DB2EE145F6AA20AF4969
:1027A0000880002405E0AD48015DAA4AA01C115430
:1027B000641C022CF7DB2025A6480571002428E0C4
:1027C0009648015DA34A601D11549548015D04F1CE
:1027D000090011549748015D04F10D001154964809
:1027E000015D04F1110011549648015D04F11500DA
:1027F00011549548015D04F1190011549348015D8D
:1028000004F11D0011548E48015D04F121001154A2
:10281000641C042CD4DBEFE045F6A5208F4908802A
:10282000002405E08D48015D8A4AA01C1154641CF7
:10283000022CF7DB302587480571002441E07748FA
:10284000015D844A601D11547548015D04F1090061
:1028500011547848015D04F10D0011547648015D72
:1028600004F1110011547748015D04F11500115471
:102870007548015D04F1190011547448015D04F1BB
:102880001D0011546E48015D04F12100115465488A
:10289000015D04F1250011546348015D04F1290034
:1028A00011546248015D04F12D0011546048015D2E
:1028B00003E076E04AE028E006E004F1310011543C
:1028C000641C042CBBDB97E04AF25A506349088031
:1028D000002405E06148015D5E4AA01C1154641C9F
:1028E000022CF7DB08255B48057100240AE04B4801
:1028F000015D584A601D11544948015D04F1090009
:102900001154641C042CF2DB76E04AF25550534912
:102910000880002405E05148015D4E4AA01C115476
:10292000641C022CF7DB08254A48057100240AE0E4
:102930004048015D474A601D11543F48015D04F164
:1029400009001154641C042CF2DB55E04AF2AA5031
:1029500042490880002405E04048015D3D4AA01C32
:102960001154641C022CF7DB10253A480571002431
:1029700014E02C48015D374A601D11542A48015D5E
:1029800004F1090011542948015D04F10D001154AE
:102990002748015D04F111001154641C042CE8DB8C
:1029A0002AE04AF2A5502D490880002405E02B4872
:1029B000015D284AA01C1154641C022CF7DB102571
:1029C00024480571002414E01E48015D214A601D61
:1029D00011541D48015D04F1090011541B48015DAB
:1029E00004F10D0011541648015D04F11100115459
:1029F000641C042CE8DB00BF00BF681D81B21548D1
:102A0000FEF70CFD691D134A505415480178A81DA6
:102A1000115413484178E81D115423E0300100207F
:102A200034010020480100204C010020500100200A
:102A300054010020580100205C0100200000C84221
:102A40003801002040010020440100203C0100200A
:102A5000528E00080C020020600100202E01002090
:102A6000508E0008FEF7B8FC002407E00F48015D17
:102A700005F1080020440E4A1154641C0C2CF5DBAF
:102A8000012280210B4800F0FFFA0B48FEF72AFADA
:102A900007E02020FEF736FA18B12020FEF762F991
:102AA00000E0F6E700BFBDE8F0870000BC050020AD
:102AB0000C020020004800401C00024010B500F04D
:102AC00001F810BD0CB5002001900090334800685B
:102AD00040F480303149086000BF3048006800F49D
:102AE000003000900198401C0190009818B901989E
:102AF000B0F5A06FF1D12948006800F4003010B1A2
:102B00000120009001E0002000900098012843D1AE
:102B10002348006840F0100021490860084600681A
:102B200020F0030008600846006840F002000860DA
:102B30001A48406819494860084640684860084695
:102B4000406840F4806048600846406820F47C108B
:102B500048600846406840F4E8104860084600684D
:102B600040F08070086000BF0C48006800F0007002
:102B70000028F9D00948406820F003000749486060
:102B80000846406840F00200486000BF03484068C3
:102B900000F00C000828F9D10CBD00000010024024
:102BA0000020024002480068401C0149086070474C
:102BB0007000002010B51348006840F00100114972
:102BC000086008464068104908400E4948600846B9
:102BD00000680E4908400B4908600846006820F468
:102BE000802008600846406820F4FE0048604FF4EA
:102BF0001F008860FFF762FF4FF000600449086023
:102C000010BD0000001002400000FFF8FFFFF6FEBC
:102C100008ED00E021B1028842F08002028004E069
:102C200002884FF67F731A400280704721B10288F4
:102C300042F00102028004E002884FF6FE731A405F
:102C40000280704731B1B0F8442042F40042A0F84D
:102C5000442005E0B0F84420C2F30E02A0F844205E
:102C600070470146888C704770B50024002200230D
:102C7000058C4FF6FE7635400584028C8388048BE4
:102C80004FF68F752C40B51E2C400D882C43751EB9
:102C90002A400D892A434D882A43144DA8420BD05F
:102CA000134DA84208D0134DA84205D0124DA8429A
:102CB00002D0124DA84213D14FF6F7752A404D8924
:102CC0002A434FF6FB752A408D882A434FF6FF654D
:102CD0002B404FF6FF552B408D892B43CD892B433D
:102CE00083800483CD888586028470BD002C0140DA
:102CF00000340140004001400044014000480140D0
:102D00000A460021018B4FF6F773194011430183E6
:102D10007047000070B5002400220023058C4FF698
:102D2000FF6635400584028C8388848B4FF68F754F
:102D30002C404FF6FC752C400D882C434FF6FF5568
:102D40002A400D894FF6FF7606EA05252A434D886D
:102D500006EA05252A43154DA84202D0144DA84283
:102D60001DD14FF2FF752A404D894FF6FF7606EAD6
:102D700005252A434FF6FF352A408D8806EA0525AA
:102D80002A434EF6FF752B404DF6FF752B408D897B
:102D900006EA05152B43CD8906EA05152B438380EA
:102DA0008483CD888587028470BD0000002C01409B
:102DB000003401400A460021818B4FF6F773194019
:102DC000114381837047000070B500220023002466
:102DD000058C4EF6FF7635400584038C8488828B03
:102DE00048F6FF752A404FF6FF452A400D884FF6FA
:102DF000FF7606EA05252A434DF6FF752B400D891F
:102E000006EA05352B434D8806EA05352B430B4D65
:102E1000A84202D00A4DA84208D14BF6FF752C40BB
:102E20008D894FF6FF7606EA85152C4384808283D0
:102E3000CD88A0F84050038470BD0000002C0140F4
:102E4000003401400A460021818B4FF2FF73194084
:102E50004FF6FF7303EA022319438183704781848D
:102E600070470000002202881D4B98420ED01D4B77
:102E700098420BD0B0F1804F08D01B4B984205D040
:102E80001A4B984202D01A4B984204D14FF68F73D6
:102E90001A404B881A43174B984207D0164B98425A
:102EA00004D04FF6FF431A40CB881A4302808B8828
:102EB00083850B8803850A4B98420BD0094B9842B7
:102EC00008D00E4B984205D00D4B984202D00D4BC6
:102ED000984201D10B7A0386012383827047000058
:102EE000002C014000340140000400400008004074
:102EF000000C004000100040001400400040014061
:102F0000004401400048014010B540F225511A48E4
:102F100000F0D0F880B140F22551174800F099F840
:102F2000154800F083F91549154A12788854144859
:102F30000078401C1249087011480078801E0F4923
:102F4000085C0D2809D10E480078401E0D49085C28
:102F50000A2802D101200C4908800821064800F007
:102F60009CF8012806D10821034800F069F80248BE
:102F700000F05CF910BD0000004C0040640400202B
:102F800012010020D40200201001002010B540F2F0
:102F90002551194800F08EF880B140F225511648AD
:102FA00000F057F8144800F041F91449144A127817
:102FB000885413480078401C114908701048007864
:102FC000801E0E49085C0D2808D10D480078401E6F
:102FD000085C0A2802D101200A4908800821064815
:102FE00000F05BF8012806D10821034800F028F81A
:102FF000014800F01BF910BD00440040D40200203D
:103000000A0100200801002010B540F224410948BF
:1030100000F050F868B1074800F008F901200649AF
:10302000088040F22441034800F013F80348FDF7FC
:1030300059FF10BD004800400C0100203000024044
:1030400001F40072B2F5007F00D100BFCA430280D4
:10305000704710B50022002340F66A14A14200D147
:1030600000BF0A1201249440A3B2DC43048010BDC7
:1030700021B1828942F40052828104E082894DF6B6
:10308000FF731A40828170471AB1838A0B4383828F
:1030900002E0838A8B438382704702460020B1F5A9
:1030A000007F00D100BF13880B400BB1012000E06E
:1030B0000020704770B50246002400230025002040
:1030C00040F66A16B14200D100BFC1F3421501F0CB
:1030D0001F03012606FA03F3012D02D1968933401E
:1030E00006E0022D02D1168A334001E0968A334071
:1030F0000C12012606FA04F41688344013B10CB100
:10310000012000E0002070BDF0B503460024002639
:103110000025002040F66A17B94200D100BF1846CA
:10312000C1F3421401F01F06012707FA06F5012C2E
:1031300001D10C3004E0022C01D1103000E0143039
:103140001AB107682F43076002E00768AF430760C2
:10315000F0BD00002DE9F04786B005460E4600247C
:10316000A24600BFA1460027B08900B100BF2F468C
:103170002C8A4CF6FF700440F08804432C82AC8902
:103180004EF6F3100440B088318908437189084332
:103190000443AC81AC8A4FF6FF400440B08904433D
:1031A000AC8201A8FEF71EFF1F48874202D1DDF85E
:1031B00010A001E0DDF80CA0A88900F4004040B1A7
:1031C0000AEBCA0000EB0A1031684900B0FBF1F8C5
:1031D00007E00AEBCA0000EB0A1031688900B0FB77
:1031E000F1F86420B8FBF0F004012009642101FB30
:1031F0001089A88900F4004040B1322000EBC900DA
:10320000B0FBF1F000F00700044308E0322000EBCF
:1032100009106421B0FBF1F000F00F0004432C8191
:1032200006B0BDE8F08700000038014001468888FC
:10323000C0F30800704700BFFEE7000040F08001C7
:10324000014A116070470000002C004000F07F012F
:10325000014A116070470000002C00400021044A20
:10326000126822F4C0710143014A116070470000E6
:10327000042C004008B5002100910749096821F09D
:103280007F01009100F07F01009A11430091024AF2
:103290000099116008BD0000042C00400FB4054BDC
:1032A00010B503A9044A029800F0A6F910BC5DF815
:1032B00014FB00003961000804020020490050EAB4
:1032C000C12018BF04204A0D18BF40F0010040F291
:1032D000FF72B2EB515F08BF40F00200012808BF47
:1032E000052070472DE9F0414F1E00EBC701044651
:1032F000D1E9000115461E4637F006020DD02A46D8
:103300003346FDF721F97F1E04EBC703D3E9002301
:10331000FDF773F837F00602F1D1022F25D0042F04
:1033200013D0062F18BFBDE8F0812A463346FDF7BB
:103330000BF9D4E90A23FDF760F82A463346FDF776
:1033400003F9D4E90823FDF758F82A463346FDF778
:10335000FBF8D4E90623FDF750F82A463346FDF77B
:10336000F3F8D4E90423FDF748F82A463346FDF77D
:10337000EBF8D4E90223FDF740F82A463346FDF77F
:10338000E3F8D4E90023BDE8F041FDF736B80122A7
:10339000FDF71DBBFDF731B800221346104611465C
:1033A000FDF744B9024A00201107FDF710BB0000E9
:1033B00001FDFFFF02E008C8121F08C1002AFAD170
:1033C00070477047002001E001C1121F002AFBD1A5
:1033D00070470000014908607047000008020020A3
:1033E0002DE9FC5F0446DFF82C914B4850F824008F
:1033F00028B903220021204600F0F0FB88E046486F
:1034000050F82400002801DD012000E002200646DB
:103410004248005DB04215D0414951F824004FF0B8
:103420007E51FDF705FA06D203220021204600F066
:10343000D5FBBDE8FC9F00203A4941F824003A49F9
:1034400041F82400344951F82400002801DB0146EA
:1034500000E041420F463846FDF757F980463048B4
:1034600050F824104046FCF752FF05462D4850F80E
:1034700024102846FCF74BFF82462B4951F82400C4
:103480002946FCF7F2FE284941F82400254840F877
:103490002450514625480068FCF73FFF0190224820
:1034A00050F8241022480068FCF737FF834629466D
:1034B00020480068FCF731FF59460090FCF7D5FE24
:1034C00080460199FCF7D1FE1B4941F8240051F8D0
:1034D00024001049FDF7ACF903D20E48164941F813
:1034E0002400154951F824000021FDF797F903D273
:1034F0000020114941F824000F4951F82400FDF73C
:1035000030F9804632464146204600F067FB00BF56
:1035100000BF8EE700401C46BC000020B800002021
:10352000B0000020C4000020CC000020FC000020DF
:10353000F8000020F4000020D400002000BFFEE7C7
:1035400001B500BF0098411E00910028FAD108BDC6
:1035500010B5044603E04FF47A7000F041F8201EE5
:10356000A4F10104F7D110BD10B5044603E04FF4F7
:103570007A7000F035F8201EA4F10104F7D110BDD7
:1035800010B5044603E04FF47A7000F029F8201ECD
:10359000A4F10104F7D110BD10B5044603E04FF4C7
:1035A0007A7000F01DF8201EA4F10104F7D110BDBF
:1035B00010B5044603E04FF47A7000F011F8201EB5
:1035C000A4F10104F7D110BD10B5044603E04FF497
:1035D0007A7000F005F8201EA4F10104F7D110BDA7
:1035E00001B5044A0099126801FB02F0FFF7A8FF39
:1035F00008BD0000040100202DE9FF4F8DB00F46EB
:103600000546002606E025280BD0DDE90F1290477D
:103610006D1C761C28780028F5D111B03046BDE825
:10362000F08F0024A246A1460122EC4900E00443A9
:1036300015F8013F203B02FA03F00842F7D1287841
:103640002A2810D06FF02F022878A0F13001092924
:1036500014D80AEB8A0102EB410144F0020400EBAA
:10366000010A6D1CF0E701CF5FEA000A03D544F4BC
:103670000054CAF1000A44F002046D1C28782E2878
:1036800017D115F8010F44F004042A280ED06FF06A
:103690002F022878A0F1300109290AD809EB890105
:1036A00002EB410100EB01096D1CF2E757F8049BA6
:1036B0006D1C28786C280FD006DC4C2817D06828A1
:1036C0000DD06A2814D104E0742810D07A280FD1C4
:1036D0000DE044F400140AE044F4801401E044F4E2
:1036E00040146978814202D104F580146D1C6D1C70
:1036F0002A786E2A1FD00CDC632A31D004DC002A21
:103700008BD0582A11D1A3E0642A68D0692A0CD141
:1037100065E0732A2ED004DC6F2A73D0702A04D19E
:103720009BE0752A6FD0782A6ED01046DDE90F1223
:103730009047761C50E1C4F30250022806D00328BB
:1037400009D0042801CF09D0066045E101CFF11767
:10375000C0E9006140E101CF06803DE106703BE138
:1037600017F8040B8DF8000000208DF80100EB46DF
:10377000012003E057F804BB4FF0FF3061074FF022
:10378000000102D40DE008F10101884649450FDA35
:103790008045F8DB1BF808100029F4D108E008F197
:1037A000010188468142FADB1BF808100029F6D196
:1037B000DDE90F23AAEB08008146214600F036F927
:1037C000304400EB080604E0DDE90F121BF8010BA2
:1037D0009047B8F10108F7D221464846F7E00A21A0
:1037E000C4F302534FF0000B0891022B04D001CF19
:1037F000C117032B09D00AE0FF1D27F00707F7E8E0
:10380000020108E032E01FE020E000B2C117042B03
:1038100001D140B2C117031E71F1000307DA4FF066
:10382000000CD0EB0C006CEB01012D2302E0230512
:1038300004D52B238DF82430012303E0E30701D0C6
:103840002023F7E7984658E00A2110E010210EE007
:1038500010204FF0000B08900CE010214FF0000BEF
:1038600044F004044FF00809089103E008214FF0E8
:10387000000B0891C4F30253022B04D001CF0021A6
:10388000032B06D006E0FF1D27F00707F7E802012B
:1038900003E080B2042B00D1C0B24FF00008230730
:1038A0002BD5702A07D0DDF820C08CF0100C5CEA14
:1038B0000B0C05D00EE040238DF82430012308E0E6
:1038C00050EA010306D030238DF824308DF82520EE
:1038D00002239846DDF820C08CF0080C5CEA0B0C43
:1038E0000BD150EA010301D1630706D530238DF8CF
:1038F00024304FF00108A9F10109582A04D038A258
:103900000B9208AA0A920BE03AA2F9E75B46089AE2
:10391000FCF72AFC0B9B9B5C0A9A521E0A921370BE
:1039200050EA0102F2D10A98ADEB000000F1200B41
:10393000600702D524F4803401E04FF00109D94535
:1039400002DDA9EB0B0000E0002000EB0B0141447D
:103950000890AAEB010AE00306D4DDE90F23214613
:10396000504600F063F806444FF0000908E009A94A
:1039700011F80900DDE90F12904709F10109761CE1
:10398000C145F4DBE0030CD5DDE90F2321465046A9
:1039900000F04CF8064404E0DDE90F1230209047B7
:1039A000761C0899481E08900029F5DC08E00A9862
:1039B0000A990078491C0A91DDE90F129047761C9C
:1039C000BBF10001ABF1010BF1DC21465046DDE912
:1039D0000F2300F019F806446D1C1BE609280100AE
:1039E0003031323334353637383961626364656675
:1039F0000000000030313233343536373839414237
:103A000043444546000000002DE9F04104460025EE
:103A10001E461746880404D405E039462020B047E6
:103A20006D1C641EF9D52846BDE8F0812DE9F041F2
:103A3000044600251E469046C80301D5302700E005
:103A40002027880404D505E041463846B0476D1C60
:103A5000641EF9D52846BDE8F08100002DE9FF5F1E
:103A6000814602F0ADFA834600240BE0384850F856
:103A70002400384941F824000020354941F8240049
:103A8000601CC4B2022CF1DB584603F079F9B9F19D
:103A9000000F01D14FF00109002454E02D4951F8E5
:103AA0002400FCF73BFE0390FCF788FE07462A4AF9
:103AB0002A4BFCF749FD0546FCF793FE8246484633
:103AC000FCF742FE05460E465046FCF777FE002204
:103AD000234BCDE90001FCF737FD07462A46334664
:103AE000FCF7A4FDCDE90201FCF77BFE1D4941F87E
:103AF00024001D4850F824105046FCF7B6FB8246BF
:103B00005046FCF747FE194951F82410084417495C
:103B100041F824005046FCF73DFE0646FCF7FEFD4A
:103B200005465146FCF7F6FB0F4941F824001048C2
:103B300050F82400074951F8241008440C4941F872
:103B40002400601CC4B2022CA8DBBDE8FF9F00006B
:103B5000A0000020A80000201201F1D184BCD03FB9
:103B600000408F40B000002098000020900000200E
:103B70008800002010B54FF48060094908600323D5
:103B8000102201460648143804F0F2FA1420FFF718
:103B900027FD8020034948614020486110BD000096
:103BA000140801400010014010B54FF400600949AD
:103BB00008600323102201460648143804F0D8FA9E
:103BC0001420FFF70DFD4FF4807003494861400059
:103BD000486110BD140801400010014070B5064650
:103BE0000C461546012E04D12946204604F016FC49
:103BF00003E02946204604F0BFFB70BD2DE9FE4FCF
:103C000006460F460025684602F0A0FA002442E06E
:103C100056F8240057F82410A0EB010ABAF1000F5F
:103C200001DB514601E0CAF100010846FCF76DFDD9
:103C300083464FF08F41FCF7A2FB80465DF82400DD
:103C40000021FCF7EBFD16D05DF824104046FCF790
:103C500096FB82464FF07E51FCF759FB814629F0D6
:103C6000004A0F48416A5046FCF7E2FD12D201209B
:103C7000A04005430EE00A48C1694046FCF7CEFD6E
:103C800005D30748016A4046FCF7D2FD02D2012065
:103C9000A0400543641C032CBADB2846BDE8FE8F18
:103CA0007C8E00082DE9F04D8D4F21F0004A86B042
:103CB00005460C46BA452ADBAAEB070028430AD082
:103CC0008848824501DC1AD1CDB106B02846BDE84E
:103CD000F04DFFF75CBB844A844B2846FCF734FC6C
:103CE00007460E46824A834B28462146FCF72CFCA9
:103CF00006B03A463346BDE8F04DFCF77EBB0120E6
:103D0000FFF768FB06B0BDE8F04DFFF745BB7A480A
:103D1000824542DABAF1795F0BDA2846FFF7CEFA2C
:103D2000042808BFFFF73EFB284606B02146BDE841
:103D3000F08D2A460B461046FCF706FC83460246E9
:103D40006E480E460B4606217844FFF7CBFA5A46DA
:103D50003346FCF7F9FB804669488A465A463346A3
:103D600004217844FFF7BEFA5A463346FCF7ECFBD1
:103D700000223B46FCF741FB02460B4640465146BB
:103D8000FCF754FC2A462346FCF7DEFB06B02A4625
:103D90002346BDE8F04DFCF730BB284624F0004137
:103DA00000223D463B46FCF7CCFB4FF0FF32FCF7D0
:103DB0000EFE0646024653480F460B46062178443F
:103DC000FFF790FA32463B46FCF7BEFBCDE9000117
:103DD0004D4832463B4604217844FFF783FA324689
:103DE0003B46FCF7B1FB00222B46FCF706FB834663
:103DF00002913046394604F00FFE804643480D4696
:103E0000504517DCDDE900015A46029BFCF70EFC29
:103E100042462B46FCF798FB42462B46FCF7EDFA50
:103E20000122FCF7D4FD304A304BFCF787FB304AC7
:103E3000304B4CE04FF0000A52460B464046FCF730
:103E4000DCFACDE9031052462B4610461946FCF722
:103E50007BFB32463B46FCF774FBDDE90332FCF7A3
:103E6000E5FB06460F46DDE900015A46029BFCF7DA
:103E7000DDFB83460091012230463946FCF7A7FD61
:103E8000194A1A4BFCF75DFB06460F4601224046D5
:103E90002946FCF79CFD5A46009BFCF755FB324631
:103EA0003B46FCF74BFB06460F460122504629468F
:103EB000FCF78DFD0E4DDFF858802A464346FCF78F
:103EC00040FB32463B46FCF73CFB2A464346FCF7A8
:103ED00038FB002CD8BF81F0004106B0BDE8F08D62
:103EE0000000F03F0000F07F075C143326A6913CF1
:103EF000182D4454FB21F93F0000E03F545D0000C1
:103F00006A5D0000DE5C0000F45C00003333EF3FCC
:103F1000FB21E93F2DE9F84F04460D4621F0004012
:103F200000917349814211DC7249884201DC06D15B
:103F30002CB120462946BDE8F84FFFF728BA6E4855
:103F4000002DCCBF6D496E49BDE8F88F6D498142A7
:103F500011DD6D498142D8BF4FF0FF366DDD20463F
:103F60002946FFF7ABF9042808BFFFF71BFA2046E4
:103F70002946BDE8F88F6549654F25F00045814227
:103F800033DD6449814219DD002632464FF080431B
:103F900020462946FCF731FA80468A46012220460F
:103FA0002946FCF714FD00223B46FCF7C7FA4246BF
:103FB0005346FCF73BFB04460D463EE0012600223B
:103FC000BA463B4620462946FCF717FA80460F467C
:103FD0000022534620462946FCF7B0FA42463B46AB
:103FE000FCF724FB04460D4627E04B4981421BDDCC
:103FF000DFF828A102260022534620462946FCF776
:10400000A3FA00223B46FCF7F8F980460F4600224F
:10401000534620462946FCF791FA42463B46FCF7B8
:1040200005FB04460D4608E0032622462B460020E9
:104030003B49FCF7FBFA04460D4622462B46104648
:104040001946FCF781FA8B46824602460B46FCF77E
:104050007BFA07460246334888460B4606217844D9
:10406000FFF740F952465B46FCF76EFA82462E484F
:104070008B463A46434605217844FFF733F93A46E2
:104080004346FCF761FA02460B46002E504659465D
:104090000CDAFCF7B2F922462B46FCF755FA01B0D0
:1040A00022462B46BDE8F04FFCF74BBAFCF7A5F9CA
:1040B00022462B46FCF748FA1C4A7A4402EBC60318
:1040C000D3E90023FCF73AFA22462B46FCF736FAEE
:1040D000174A7A4402EBC603D3E90023FCF731FA0E
:1040E000009A002AB8BF81F00041BDE8F88F0000B7
:1040F000000010440000F07F182D4454FB21F93FCC
:10410000FB21F9BF0000DC3F0000203E0000F33F30
:104110000000F03F0000E63F008003400000F83F51
:104120000000F0BFF65A0000B45A0000525A0000D6
:104130001A5A00002DE9F04D9446CCF1000423F00A
:1041400000464CEA0404524F46EAD4749A46884624
:1041500021F00042BC4206D8454240EA050442EA4A
:10416000D474BC4204D9BDE8F04D6246FFF712B9E1
:10417000AAF14055A5F17F6555EA0C040BD0022445
:1041800004EAAA74434DDFF810E144EAD87452EA15
:10419000000B04D00CE0BDE8F04DFFF7BBBE002CD7
:1041A00014BF012CBDE8F08D022C30D0032C32D08E
:1041B00056EA0C0B0AD0BE4220D1BA4209D126F0F1
:1041C000804622F080423346114617E000291ADB70
:1041D00025E0DFF8C8B0FB44002C04BFDBE9000198
:1041E000BDE8F08D012C02BFDBE9000181F0004148
:1041F000BDE8F08D022C0AD0032C0CD0BA4212D1AB
:10420000B8F1000F0BDA23482549BDE8F08D2846A8
:104210002449BDE8F08D28467146BDE8F08D1D4863
:104220002149BDE8F08D921B12153C2AC4BF1948E4
:104230001D490EDCBAF1000FBEBF12F13C0F002089
:10424000014606DB6246FCF7F1F921F00041FFF779
:1042500061FE002C08BFBDE8F08D012C04BF81F089
:104260000041BDE8F08D114A114B022C07D0FCF73C
:1042700065F92A46BDE8F04D0A4BFCF75FB9FCF73B
:104280005DF92A46BDE8F04D064BFCF75AB900002F
:104290000000F07F182D4454FB2109C0AE590000E6
:1042A000FB21F9BFFB210940FB21F93F075C1433D7
:1042B00026A6A13C10B5002403E02046FFF790F8A5
:1042C000641C022CF9D310BD0146094800EA5102D2
:1042D000891A00EA5202891A01EBD100054B00EA63
:1042E00003013F20B1FBF0F300FB13107047000007
:1042F000DBB66DDBC7711CC72DE9F0410446E078E1
:1043000000F0C006E07800F03F05607800F00100A2
:1043100098B1EF102846E91705EB5171C910A5EBCC
:10432000C101491C01F0FF080B48006820B10A4890
:10433000414602683846904700BF607800F00800A8
:1043400030B10548406818B1B011034A5168884738
:104350000020BDE8F0810000C80500202DE9F04FE5
:104360008BB03748006800284FD1364800680028D5
:104370004BD1354A3549364802F0DAFD8246BAF16A
:10438000000F42D1FDF798FA3249088008AA09A91E
:104390000AA8FDF741FA05AA06A907A8FDF764FADD
:1043A000BDF91400FCF7B1F980F000484046FCF775
:1043B00005FA06464FF06632274BFCF737F90446FC
:1043C000FCF70FFA8346BDF92400FCF7ACF9CDE900
:1043D0000001BDF92800FCF7A6F90646DDE9002337
:1043E000FFF7A8FE804600221C4BFCF7ADF84FF00B
:1043F000C0421B4BCDE90201FCF718F90446FCF75B
:10440000F0F959460490FDF7CBF802F047FA01F0B5
:1044100021FF044602F07EFA0B4803680B4802684D
:104420000B4801680B48B0F90000FDF745FE04F0A9
:10443000DFFA04F017FB04F081F90BB0BDE8F08F50
:1044400000000020040000202C0000202800002094
:104450002400002020000020666630400080664076
:10446000FB21094008B503208DF8020010208DF8CB
:104470000300C002ADF8000069460248FCF792FE56
:1044800008BD00000008014010B502F012FD002137
:104490004FF40060FDF766FD10BD38B5044664B109
:1044A00020208DF8000028208DF8010030208DF8A4
:1044B000020038208DF8030004E0A322042168469E
:1044C000FBF7B4FE6A46042140F69E2003F0E4FDAB
:1044D00003F0CEF938BD00003EB5044602208DF849
:1044E0000000CA208DF80100E3208DF802000920A9
:1044F0008DF803006A460421682003F0CDFDA32057
:104500008DF8000004F0400048B1C0208DF8010093
:10451000C8208DF80200C2208DF8030006E0A32019
:104520008DF801008DF802008DF8030004F4C070CE
:1045300048B1C4208DF80400CC208DF80500C620B9
:104540008DF8060006E0A3208DF804008DF8050024
:104550008DF80600A3208DF807008DF808008DF86F
:1045600009006A460A2140F6A72003F095FD04F0F1
:10457000030018B120208DF8000002E0D8208DF84B
:1045800000006A46012140F6B62003F085FD04F0E4
:10459000200018B1012000F0ADF802E0002000F08A
:1045A000A9F804F4C07008B304F4807060B1B220BC
:1045B0008DF800008B208DF80100B6208DF80200E8
:1045C0009B208DF803000BE0B0208DF800008020C8
:1045D0008DF80100B4208DF8020090208DF80300C2
:1045E0006A46042140F6A22003F056FD04F00100C3
:1045F00020B3F8208DF800006A4601214FF40B60CB
:1046000003F04AFDFA21072000F02CFC072000F0FF
:10461000F3FB012000F013FC642000F0F3FC4FF4E6
:10462000FA7000F002FDC821304800F0A3FB2820FA
:1046300000F0BCFB0A2000F0CCFB08E0D8208DF88D
:1046400000006A4601214FF40B6003F025FD04F0E1
:10465000020018B1D9208DF8000002E0D8208DF8B2
:1046600000006A46012140F23D7003F015FD04F0A0
:10467000040018B1012000F069F802E0002000F009
:1046800065F804F0100018B10120FFF706FF02E002
:104690000020FFF702FF44F008001549488103F0AD
:1046A000E7F800201249887304F0400018B108466A
:1046B000807B801D887304F4C07020B10C48807B1F
:1046C000801D0B49887304F0140020B10848807BDA
:1046D00010300749887304F0030020B10448807B40
:1046E000001D0349887300203EBD000009E3CA0293
:1046F000C80500203EB504466CB10EA1D1E90020EA
:104700008968CDE9002002916A4609214FF497603B
:1047100003F0C2FC3EBD0AA2D2E900109268CDE9C6
:10472000010200916A4609214FF4976003F0B4FC3E
:10473000F0E70000B8AAB38DB4980D355D00000015
:10474000B8AAAAAAB088C3C5C700000038B50446F5
:1047500064B1C0208DF80000C2208DF80100C42093
:104760008DF80200C6208DF8030004E08B2204219E
:104770006846FBF75BFD6A46042140F6982003F08B
:104780008BFC03F075F838BD10B5C8234FF4806278
:10479000024940F6F63002F0FFFE10BDA48E00087C
:1047A0002DE9F04F8DB00746884615469946DDE95C
:1047B000166B0024002030806B49887B5A4605A97F
:1047C00002F0B6FF18B1601E0DB0BDE8F08F66486C
:1047D000807A00F01400002867D09DF814000006CD
:1047E0009DF8151040EA01409DF8161040EA01209E
:1047F0009DF81710084328609DF8180000069DF8E2
:10480000191040EA01409DF81A1040EA01209DF875
:104810001B10084368609DF81C0000069DF81D10E1
:1048200040EA01409DF81E1040EA01209DF81F104B
:104830000843A8609DF8200000069DF8211040EA7A
:1048400001409DF8221040EA01209DF82310084302
:10485000E86004F11000C4B2286800140190686890
:1048600000140290A86800140390E86800140490F3
:1048700001984043029901FB0100039901FB0100EB
:10488000049901FB010ABAF1706F02DBBAF1885F8B
:1048900005DD02F0EDFF00203080401E94E7B6F900
:1048A000000040F48070308000BF2F48807A00F014
:1048B000400020B305A9601C085C095D40EA0120A6
:1048C00000B2A8F8000005A9E01C095C05AAA01C1C
:1048D000105C41EA002000B2A8F8020005A9601DA2
:1048E000095C201D105C41EA002000B2A8F8040019
:1048F000A01DC4B2B6F9000040F0080030801A488C
:10490000408900F4C07008B305A9601C085C095D0B
:1049100040EA012000B2388005A9E01C095C05AA24
:10492000A01C105C41EA002000B2788005A9601D3F
:10493000095C201D105C41EA002000B2B880A01D77
:10494000C4B2B6F9000040F0700030800648807AAA
:1049500000F0030018B105A90819FFF7CDFC48467F
:1049600002F0ACFA00202FE7C805002070B588B02F
:10497000064601A802F064FCBDF804000021C9034A
:1049800041EA5045C4034448007A00F0030056F859
:10499000200005904048007A00F0040010B105980E
:1049A000404205903C48007AC0F3C10056F8200010
:1049B00006903948007A00F0200010B10698404275
:1049C00006903548007AC0F3811056F82000079011
:1049D0003148008900F4807010B107984042079078
:1049E0000598C117A0FB042301FB043100FB05104F
:1049F000810041EA927005900698C117A0FB04233C
:104A000001FB043100FB0510810041EA9270069021
:104A10000798C117A0FB042301FB043100FB05101C
:104A2000810041EA927007900598000E8DF8080009
:104A30000598000C8DF809000598000A8DF80A0009
:104A40000598C0B28DF80B000698000E8DF80C008A
:104A50000698000C8DF80D000698000A8DF80E00DF
:104A60000698C0B28DF80F000798000E8DF8100060
:104A70000798000C8DF811000798000A8DF81200B5
:104A80000798C0B28DF8130002AA0C214FF42570CC
:104A900003F002FB08B070BDC805002030B585B03A
:104AA000044616A207CA02AB07C3C82C03DD4FF0A9
:104AB000FF3005B030BDC82090FBF4F0401E85B239
:104AC000280A8DF80000E8B28DF801006A4602213C
:104AD00040F2162003F0E0FA10B14FF0FF30E8E7A3
:104AE00002AA0C2140F6C12003F0D6FA10B14FF013
:104AF000FF30DEE7044884810020DAE7FEF2ABC431
:104B0000AAF1DFDFBBAFDFDFC80500201FB5044619
:104B10004848007A00F0030054F82000019045480E
:104B2000007A00F0040010B1019840420190414821
:104B3000007AC0F3C10054F8200002903D48007A8A
:104B400000F0200010B10298404202903948007AEB
:104B5000C0F3811054F8200003903648008900F417
:104B6000807010B10398404203903349019880FB54
:104B70000101800F40EA810001902F49029880FBDB
:104B80000110820042EA917002902B49039880FB49
:104B90000110820042EA917003900198000E8DF896
:104BA00000000198000C8DF801000198000A8DF8B2
:104BB00002000198C0B28DF803006A4604214FF448
:104BC000747003F069FA18B14FF0FF3004B010BDF3
:104BD0000298000E8DF800000298000C8DF801007C
:104BE0000298000A8DF802000298C0B28DF8030006
:104BF0006A4604214FF4757003F04EFA10B14FF07D
:104C0000FF30E3E70398000E8DF800000398000CD6
:104C10008DF801000398000A8DF802000398C0B2D5
:104C20008DF803006A4604214FF4767003F034FADD
:104C3000CCE70000C805002009E3CA0210B586B021
:104C4000044647A00068039046A00068029046A072
:104C50000068019045A00068009004F0030003A9DB
:104C6000085C8DF8140003A8C4F3C101405C8DF802
:104C7000150003A8C4F38111405C8DF8160004F000
:104C8000030002A9085C8DF8100002A8C4F3C1015A
:104C9000405C8DF8110002A8C4F38111405C8DF8CE
:104CA000120005AA032140F2264003F0F5F918B1DD
:104CB0004FF0FF3006B010BD04AA032140F22A4095
:104CC00003F0EAF910B14FF0FF30F3E701980590D7
:104CD0000098049004F0040058B19DF8140040F0CE
:104CE00001008DF814009DF8100040F001008DF8CF
:104CF000100004F0200058B19DF8150040F00100AC
:104D00008DF815009DF8110040F001008DF811009C
:104D100004F4807058B19DF8160040F001008DF841
:104D200016009DF8120040F001008DF8120005AA4F
:104D300003214FF4886003F0AFF910B14FF0FF305A
:104D4000B8E704AA032140F2314003F0A5F910B1FD
:104D50004FF0FF30AEE7064804810020AAE70000CC
:104D60004CCD6C000CC92C003656760026466600E9
:104D7000C8050020F8B505460E464FF47A7095FB3D
:104D8000F0F000FB06F4200E8DF80000200C8DF8EA
:104D90000100200A8DF80200E0B28DF803006A4697
:104DA00004214FF4AE7003F077F9F8BD38B504462E
:104DB000052094FBF0F084B220128DF80000E0B2E0
:104DC0008DF801006A4602214FF4AD7003F064F9DA
:104DD00038BD38B50446052094FBF0F084B22012AB
:104DE0008DF80000E0B28DF801006A4602214FF410
:104DF000AC7003F051F938BD38B50446002000907E
:104E000004F0010020B19DF8000040F03000009057
:104E100004F0020020B19DF8000040F00C0000906A
:104E200004F0040020B19DF8000040F00300009061
:104E30006A4601214FF4A47003F02EF938BD38B54D
:104E40000446012C01DA012402E0042C00DD0424D4
:104E5000601EC0B200906A46012140F24F1003F07C
:104E60001BF938BD2DE9FC4706460F4606F0070042
:104E700010B1B7F5C86F03DD4FF0FF30BDE8FC8718
:104E80003846FBF74BFC81465949FBF778FA8046D8
:104E9000684602F0AFF99DF80000022806D0042809
:104EA00016D0082826D0102848D135E04FF08D4183
:104EB0004046FBF732FA8146FBF76CFC84B24D4961
:104EC0004046FBF72AFA8146FBF764FC85B238E0DE
:104ED0004FF08C414046FBF720FA8146FBF75AFC25
:104EE00084B245494046FBF718FA8146FBF752FC6D
:104EF00085B226E04FF08B414046FBF70EFA814623
:104F0000FBF748FC84B23D494046FBF706FA814670
:104F1000FBF740FC85B214E04FF08A414046FBF7B6
:104F2000FCF98146FBF736FC84B235494046FBF775
:104F3000F4F98146FBF72EFC85B202E04FF0FF301A
:104F40009CE700BF20128DF80400E0B28DF8050048
:104F500028128DF80600E8B28DF8070006F001006F
:104F6000A0B101AA02214FF4EA7003F095F810B144
:104F70004FF0FF3082E70DF1060202214FF49270EC
:104F800003F08AF810B14FF0FF3077E706F0020027
:104F9000A0B101AA02214FF4EC7003F07DF810B12A
:104FA0004FF0FF306AE70DF1060202214FF49470D2
:104FB00003F072F810B14FF0FF305FE706F0040025
:104FC000A0B101AA02214FF4EE7003F065F810B110
:104FD0004FF0FF3052E70DF1060202214FF49670B8
:104FE00003F05AF810B14FF0FF3047E7002045E7D3
:104FF00000004843000040460000C0450000404516
:105000000000C04438B50446052094FBF0F085B29A
:1050100028128DF80000E8B28DF801006A460221DE
:105020004FF4EF7003F038F838BD38B5044605206A
:1050300094FBF0F085B228128DF80000E8B28DF8EC
:1050400001006A4602214FF4ED7003F025F838BDE7
:1050500000BF00F08001002968D04FF48051FE4A63
:10506000116000BF00BF00BF00BF00BF00BF00BF96
:1050700000BF00BF00BF00BF00BF00BF00BF00BF38
:1050800000BF00BF00BF00BF00BF00BF00BF00BF28
:1050900000BF00BF00BF00BF00BF00BF00BF00BF18
:1050A00000BF00BF00BF00BF00BF00BF00BF00BF08
:1050B00000BF00BF00BF00BF00BF00BF00BF00BFF8
:1050C00000BF00BF00BF00BF00BF00BF00BF00BFE8
:1050D00000BF00BF00BF00BF00BF00BF00BF00BFD8
:1050E00000BF00BF00BF00BF00BF00BF00BF00BFC8
:1050F00000BF00BF00BF00BF00BF00BF00BF00BFB8
:1051000000BF00BF00BF00BF00BF4FF48051D24AB4
:10511000121D116000BF00BF00BF00BF00BF00BF75
:1051200000BF00BF00BF00BF00BF68E04FF4805168
:10513000C94A116000BF00BF00BF00BF00BF00BF71
:1051400000BF00BF00BF00BF00BF00BF4FF48051D1
:10515000C14A121D116000BF00BF00BF00BF00BFE9
:1051600000BF00BF00BF00BF00BF00BF00BF00BF47
:1051700000BF00BF00BF00BF00BF00BF00BF00BF37
:1051800000BF00BF00BF00BF00BF00BF00BF00BF27
:1051900000BF00BF00BF00BF00BF00BF00BF00BF17
:1051A00000BF00BF00BF00BF00BF00BF00BF00BF07
:1051B00000BF00BF00BF00BF00BF00BF00BF00BFF7
:1051C00000BF00BF00BF00BF00BF00BF00BF00BFE7
:1051D00000BF00BF00BF00BF00BF00BF00BF00BFD7
:1051E00000BF00BF00BF00BF00BF00BF00BF00BFC7
:1051F00000BF00BF00BF00BF00BF00BF00BF00BFB7
:1052000000BF00F04001002968D04FF48051924A5D
:10521000116000BF00BF00BF00BF00BF00BF00BFE4
:1052200000BF00BF00BF00BF00BF00BF00BF00BF86
:1052300000BF00BF00BF00BF00BF00BF00BF00BF76
:1052400000BF00BF00BF00BF00BF00BF00BF00BF66
:1052500000BF00BF00BF00BF00BF00BF00BF00BF56
:1052600000BF00BF00BF00BF00BF00BF00BF00BF46
:1052700000BF00BF00BF00BF00BF00BF00BF00BF36
:1052800000BF00BF00BF00BF00BF00BF00BF00BF26
:1052900000BF00BF00BF00BF00BF00BF00BF00BF16
:1052A00000BF00BF00BF00BF00BF00BF00BF00BF06
:1052B00000BF00BF00BF00BF00BF4FF48051664A6F
:1052C000121D116000BF00BF00BF00BF00BF00BFC4
:1052D00000BF00BF00BF00BF00BF68E04FF48051B7
:1052E0005D4A116000BF00BF00BF00BF00BF00BF2C
:1052F00000BF00BF00BF00BF00BF00BF4FF4805120
:10530000554A121D116000BF00BF00BF00BF00BFA3
:1053100000BF00BF00BF00BF00BF00BF00BF00BF95
:1053200000BF00BF00BF00BF00BF00BF00BF00BF85
:1053300000BF00BF00BF00BF00BF00BF00BF00BF75
:1053400000BF00BF00BF00BF00BF00BF00BF00BF65
:1053500000BF00BF00BF00BF00BF00BF00BF00BF55
:1053600000BF00BF00BF00BF00BF00BF00BF00BF45
:1053700000BF00BF00BF00BF00BF00BF00BF00BF35
:1053800000BF00BF00BF00BF00BF00BF00BF00BF25
:1053900000BF00BF00BF00BF00BF00BF00BF00BF15
:1053A00000BF00BF00BF00BF00BF00BF00BF00BF05
:1053B00000BF00F0200100296AD04FF48051264A36
:1053C000116000BF00BF00BF00BF00BF00BF00BF33
:1053D00000BF00BF00BF00BF00BF00BF00BF00BFD5
:1053E00000BF00BF00BF00BF00BF00BF00BF00BFC5
:1053F00000BF00BF00BF00BF00BF00BF00BF00BFB5
:1054000000BF00BF00BF00BF00BF00BF00BF00BFA4
:1054100000BF00BF00BF00BF00BF00BF00BF00BF94
:1054200000BF00BF00BF00BF00BF00BF00BF00BF84
:1054300000BF00BF00BF00BF00BF00BF00BF00BF74
:1054400000BF00BF00BF00BF00BF00BF00BF00BF64
:1054500000BF00BF00BF01E0100C014000BF00BF53
:1054600000BF00BF00BF00BF00BF00BF00BF00BF44
:105470004FF48051FE4A116000BF00BF00BF00BF63
:1054800000BF00BF00BF00BF00BF00BF00BF68E09B
:105490004FF48051F64A121F116000BF00BF00BFD9
:1054A00000BF00BF00BF00BF00BF00BF00BF00BF04
:1054B00000BF4FF48051EE4A116000BF00BF00BF33
:1054C00000BF00BF00BF00BF00BF00BF00BF00BFE4
:1054D00000BF00BF00BF00BF00BF00BF00BF00BFD4
:1054E00000BF00BF00BF00BF00BF00BF00BF00BFC4
:1054F00000BF00BF00BF00BF00BF00BF00BF00BFB4
:1055000000BF00BF00BF00BF00BF00BF00BF00BFA3
:1055100000BF00BF00BF00BF00BF00BF00BF00BF93
:1055200000BF00BF00BF00BF00BF00BF00BF00BF83
:1055300000BF00BF00BF00BF00BF00BF00BF00BF73
:1055400000BF00BF00BF00BF00BF00BF00BF00BF63
:1055500000BF00BF00BF00BF00BF00BF00BF00BF53
:1055600000BF00BF00BF00F01001002968D04FF459
:105570008051BF4A121F116000BF00BF00BF00BFB3
:1055800000BF00BF00BF00BF00BF00BF00BF00BF23
:1055900000BF00BF00BF00BF00BF00BF00BF00BF13
:1055A00000BF00BF00BF00BF00BF00BF00BF00BF03
:1055B00000BF00BF00BF00BF00BF00BF00BF00BFF3
:1055C00000BF00BF00BF00BF00BF00BF00BF00BFE3
:1055D00000BF00BF00BF00BF00BF00BF00BF00BFD3
:1055E00000BF00BF00BF00BF00BF00BF00BF00BFC3
:1055F00000BF00BF00BF00BF00BF00BF00BF00BFB3
:1056000000BF00BF00BF00BF00BF00BF00BF00BFA2
:1056100000BF00BF00BF00BF00BF00BF00BF00BF92
:105620004FF48051924A116000BF00BF00BF00BF1D
:1056300000BF00BF00BF00BF00BF00BF00BF68E0E9
:105640004FF480518A4A121F116000BF00BF00BF93
:1056500000BF00BF00BF00BF00BF00BF00BF00BF52
:1056600000BF4FF48051824A116000BF00BF00BFED
:1056700000BF00BF00BF00BF00BF00BF00BF00BF32
:1056800000BF00BF00BF00BF00BF00BF00BF00BF22
:1056900000BF00BF00BF00BF00BF00BF00BF00BF12
:1056A00000BF00BF00BF00BF00BF00BF00BF00BF02
:1056B00000BF00BF00BF00BF00BF00BF00BF00BFF2
:1056C00000BF00BF00BF00BF00BF00BF00BF00BFE2
:1056D00000BF00BF00BF00BF00BF00BF00BF00BFD2
:1056E00000BF00BF00BF00BF00BF00BF00BF00BFC2
:1056F00000BF00BF00BF00BF00BF00BF00BF00BFB2
:1057000000BF00BF00BF00BF00BF00BF00BF00BFA1
:1057100000BF00BF00BF00F00801002968D04FF4AF
:105720008051534A121F116000BF00BF00BF00BF6D
:1057300000BF00BF00BF00BF00BF00BF00BF00BF71
:1057400000BF00BF00BF00BF00BF00BF00BF00BF61
:1057500000BF00BF00BF00BF00BF00BF00BF00BF51
:1057600000BF00BF00BF00BF00BF00BF00BF00BF41
:1057700000BF00BF00BF00BF00BF00BF00BF00BF31
:1057800000BF00BF00BF00BF00BF00BF00BF00BF21
:1057900000BF00BF00BF00BF00BF00BF00BF00BF11
:1057A00000BF00BF00BF00BF00BF00BF00BF00BF01
:1057B00000BF00BF00BF00BF00BF00BF00BF00BFF1
:1057C00000BF00BF00BF00BF00BF00BF00BF00BFE1
:1057D0004FF48051264A116000BF00BF00BF00BFD8
:1057E00000BF00BF00BF00BF00BF00BF00BF6BE035
:1057F0004FF480511E4A121F116000BF00BF00BF4E
:1058000000BF00BF00BF00BF00BF00BF00BF00BFA0
:1058100000BF4FF48051164A116000BF00BF00BFA7
:1058200000BF00BF00BF00BF00BF00BF00BF00BF80
:1058300000BF00BF00BF00BF00BF00BF00BF00BF70
:1058400000BF00BF00BF00BF00BF00BF00BF00BF60
:1058500000BF00BF00BF00BF00BF00BF00BF00BF50
:1058600000BF00BF00BF00BF00BF00BF00BF01E01E
:10587000140C014000BF00BF00BF00BF00BF00BF4D
:1058800000BF00BF00BF00BF00BF00BF00BF00BF20
:1058900000BF00BF00BF00BF00BF00BF00BF00BF10
:1058A00000BF00BF00BF00BF00BF00BF00BF00BF00
:1058B00000BF00BF00BF00BF00BF00BF00BF00BFF0
:1058C00000BF00BF00BF00BF00BF00BF00F0040169
:1058D000002968D04FF48051FE4A116000BF00BF1C
:1058E00000BF00BF00BF00BF00BF00BF00BF00BFC0
:1058F00000BF00BF00BF00BF00BF00BF00BF00BFB0
:1059000000BF00BF00BF00BF00BF00BF00BF00BF9F
:1059100000BF00BF00BF00BF00BF00BF00BF00BF8F
:1059200000BF00BF00BF00BF00BF00BF00BF00BF7F
:1059300000BF00BF00BF00BF00BF00BF00BF00BF6F
:1059400000BF00BF00BF00BF00BF00BF00BF00BF5F
:1059500000BF00BF00BF00BF00BF00BF00BF00BF4F
:1059600000BF00BF00BF00BF00BF00BF00BF00BF3F
:1059700000BF00BF00BF00BF00BF00BF00BF00BF2F
:1059800000BF00BF4FF48051D24A121D116000BF0A
:1059900000BF00BF00BF00BF00BF00BF00BF00BF0F
:1059A00000BF00BF68E04FF48051CA4A116000BFD9
:1059B00000BF00BF00BF00BF00BF00BF00BF00BFEF
:1059C00000BF00BF00BF4FF48051C24A121D1160DA
:1059D00000BF00BF00BF00BF00BF00BF00BF00BFCF
:1059E00000BF00BF00BF00BF00BF00BF00BF00BFBF
:1059F00000BF00BF00BF00BF00BF00BF00BF00BFAF
:105A000000BF00BF00BF00BF00BF00BF00BF00BF9E
:105A100000BF00BF00BF00BF00BF00BF00BF00BF8E
:105A200000BF00BF00BF00BF00BF00BF00BF00BF7E
:105A300000BF00BF00BF00BF00BF00BF00BF00BF6E
:105A400000BF00BF00BF00BF00BF00BF00BF00BF5E
:105A500000BF00BF00BF00BF00BF00BF00BF00BF4E
:105A600000BF00BF00BF00BF00BF00BF00BF00BF3E
:105A700000BF00BF00BF00BF00BF00BF00F00201B9
:105A8000002968D04FF48051924A116000BF00BFD6
:105A900000BF00BF00BF00BF00BF00BF00BF00BF0E
:105AA00000BF00BF00BF00BF00BF00BF00BF00BFFE
:105AB00000BF00BF00BF00BF00BF00BF00BF00BFEE
:105AC00000BF00BF00BF00BF00BF00BF00BF00BFDE
:105AD00000BF00BF00BF00BF00BF00BF00BF00BFCE
